:020000040800F2
:10000000B8070020A101000807370008EF320008F8
:100010000537000869060008193F000800000000C5
:100020000000000000000000000000009D370008F4
:1000300003070008000000009B370008C9370008CC
:10004000BB010008BB010008BB010008BB010008A0
:10005000BB010008BB010008BB010008BB01000890
:10006000BB010008BB010008BB01000895060008A1
:10007000BB010008BB010008A1060008AD0600088E
:10008000BB010008BB010008BB010008BB01000860
:10009000BB010008BB010008BB010008BB01000850
:1000A000BB010008BB010008BB010008BB01000840
:1000B000BB0100086138000800000000BB01000817
:1000C000BB0100080000000000000000BB010008A8
:1000D00000000000013F0008BB010008BB01000850
:1000E000BB010008BB010008000000000000000088
:1000F0000000000000000000000000000000000000
:1001000000000000000000000000000000000000EF
:100110000000000000000000BB010008BB01000857
:1001200000000000000000000000000000000000CF
:1001300000000000000000000000000000000000BF
:10014000BB010008BB01000800000000BB01000863
:10015000BB010008BB010008BB010008BB0100088F
:10016000BB010008BB010008000000000000000007
:10017000000000000000000000000000000000007F
:1001800000000000BB010008DFF810D000F0BEF94D
:1001900000480047593F0008AFF30080B80700202F
:1001A0000648804706480047FEE7FEE7FEE7FEE711
:1001B000FEE7FEE7FEE7FEE7FEE7FEE75138000850
:1001C000890100082DE9F05F0546002092469B4614
:1001D00088460646814640241BE02846414647465D
:1001E000224600F020F853465A46C01A914110D3D7
:1001F00011461846224600F0E6F82D1A67EB010872
:100200004F4622460120002100F0DDF817EB0009DF
:100210004E41201EA4F10104DFDC484631462A4647
:100220004346BDE8F09F202A04DB203A21FA02F081
:100230000021704721FA02F3D040C2F12002914020
:10024000084319467047D2B201E000F8012B491E5D
:10025000FBD270470022F6E710B513460A46044663
:100260001946FFF7F0FF204610BD2DE9FE4F81EA49
:10027000030404F0004421F0004100944FF0000B0F
:1002800023F0004350EA01045ED052EA03045BD03D
:10029000C3F30A54C1F30A552C44A4F2F334019475
:1002A000A0FB0254C1F3130141F48011C3F3130303
:1002B00043F4801301FB024400FB034E840A970AB7
:1002C00044EA815447EA8357A4FB076802958D0AE4
:1002D00005FB07854FEA932C04FB0C542705029D70
:1002E0004FEA065847EA1637B5EB08056EEB070CE0
:1002F000870E920E47EA811742EA8312A7FB02019A
:10030000B6EB0B0164EB00042B0D43EA0C335E18D3
:1003100044EB1C50DA465146E7FB0201C5F31304D7
:100320004FEA0B3343EA14534FEA0432019C43EA89
:100330000603A4F10C040294009CCDE900B400F083
:1003400097F803B0BDE8F08F00200146F9E70EB53D
:1003500040F2334102910021CDE900110A460B46DB
:1003600000F086F803B000BD00F0004230F000401D
:100370000AD0C10D01F56071C0F3160042EA0151C7
:10038000C20840071143704700200146704701F042
:10039000004330B421F0004150EA010206D00A0DBA
:1003A000A2F56072C1F31301002A02DC30BC002008
:1003B0007047440F44EAC104C100E01830BC00EBB0
:1003C000C25000F00FB8202A04DB203A00FA02F1F4
:1003D000002070479140C2F1200320FA03F3194333
:1003E000904070470029A8BF7047401C490008BFD3
:1003F00020F00100704710B4B0FA80FC00FA0CF055
:1004000050EA010404BF10BC704749B1CCF120048C
:1004100021FA04F411FA0CF118BF01212143084319
:10042000A3EB0C01CB1D4FEA00614FEA102042BF45
:10043000002010BC704700EBC35010440029A4BF3B
:1004400010BC7047401C490008BF20F0010010BCE0
:10045000704710B5141E73F1000408DA401C41F116
:10046000000192185B411A4301D120F0010010BD38
:100470002DE9F04D92469B4611B1B1FA81F202E0AE
:10048000B0FA80F220329046FFF79DFF04460F46F7
:1004900040EA0A0041EA0B0153465A46084313D08A
:1004A000114653EA010019D0C8F140025046FFF747
:1004B000BAFE05460E46504659464246FFF783FFB0
:1004C000084305D0012004E020463946BDE8F08D00
:1004D0000020054346EAE0762C4337430A9863053B
:1004E000E40AA0EB08000022FD0A44EA47540A305F
:1004F00002D500200146E9E7010510196941DDE94F
:10050000084500196941BDE8F04DA2E7064C074DCA
:1005100006E0E06840F0010394E8070098471034D3
:10052000AC42F6D3FFF734FE90410008B04100081A
:100530000146406A026C12F0500F03D0806B026BD0
:1005400008461047016C41F4007101640168C968F4
:1005500011F4406F0CD1417E51B9016C21F48071CE
:100560000164016CC90403D4016C41F00101016410
:1005700000F032BB406A016C41F040010164416C03
:1005800041F00401416400F029BB406A00F025BB42
:1005900070B504460068816801F0030101292AD181
:1005A0000168C90727D0816801F00D01012914D124
:1005B000816841F00201816021680320086000F039
:1005C000F3FE054613E000BF00F0EEFE401B0228DC
:1005D0000DD920688068C00709D0206C40F0100059
:1005E0002064606C40F001006064012070BD2068F0
:1005F0008068C007E8D1002070BD000070B50446D7
:100600000068816801F00301012902D10168C9076E
:1006100025D18168134A114212D1816841F001014C
:10062000816000F0C1FE054614E000BF00F0BCFE92
:10063000401B02280ED920680068C043C00709D0BB
:10064000206C40F010002064606C40F00100606499
:10065000012070BD20680068C043C007E6D10020BB
:1006600070BD00003F000080FEE7000010B50346AB
:100670000068C169C9060AD51021016203F090F82B
:10068000BDE8104006220249184602F092BA10BD99
:1006900014000020014800F0A8BC00003801002030
:1006A000014800F0A2BC000070030020014800F0E7
:1006B0009CBC00002C030020054A01681144142250
:1006C000B1FBF2F1890001640249C1637047000087
:1006D000F8FFFDBF0000024030B590F84050012403
:1006E000AC40C56B6C60046863604368102B0368A2
:1006F00003D099600068C26030BD9A600068C16034
:1007000030BD704772B6FEE72DE9F041044690F81F
:100710003C00884601280AD0012584F83C50204638
:10072000FFF736FF06004FF0000703D037E0022046
:10073000BDE8F08125642068816821F080418160F6
:10074000B8F1010F04D12068816841F080418160D7
:100750002068816841F00041816000F025FE054677
:1007600013E000BF00F020FE401B0A280DD92068CE
:100770008068002809DA206C20F0020040F01000A8
:10078000206484F83C700120D2E72068806800284B
:10079000E8DB206C20F0020040F00100206484F8C7
:1007A0003C703046C4E7000070B5026800234FF08B
:1007B000A04494B0A24200D1314C009490F83C4047
:1007C000012C1FD0012480F83C40926852074CD481
:1007D000009A9268520748D42A4A0D6840F61F745E
:1007E00045B3956890F8306025F4604545EA463594
:1007F0004E68354395600568AE6806F00306012E25
:1008000006D102E0022014B070BD2D68ED0731D191
:10081000009DAD6805F00305012D03D1009D2D68F5
:10082000ED0727D10D6889680D439168A1430D43F9
:1008300095601FE0916821F46041916001688D68C6
:1008400005F00305012D02D10968C90712D10099ED
:10085000896801F00301012903D100990968C907DA
:1008600008D19168A143916004E0016C41F020013E
:1008700001640123002180F83C101846C3E7000002
:100880000001005000030050F0B594B00025009521
:1008900090F83C202E46012A19D0012780F83C70A0
:1008A00003689A6852077CD44A681F24052A11D22B
:1008B000D3F830C002EB4202520094402CEA040C00
:1008C0000C6894404CEA040CC3F830C035E00220B8
:1008D00014B0F0BD0A2A0FD2D3F834C0521F02EB75
:1008E0004202520094402CEA040C0C6894404CEAFA
:1008F000040CC3F834C020E00F2A0FD2D3F838C05C
:100900000A3A02EB4202520094402CEA040C0C68B2
:1009100094404CEA040CC3F838C00EE0D3F83CC055
:100920000F3A02EB4202520094402CEA040C0C688D
:1009300094404CEA040CC3F83CC00268936813F07E
:100940000C0F4FF0070374D1D1F800E0BEF10A0F8D
:1009500010D39469AEF10A0E0EEB4E0C03FA0CFEA6
:1009600024EA0E04D1F808E00EFA0CFE44EA0E0464
:1009700094610FE0D2F814C00EEB4E0403FA04FEAB
:100980002CEA0E0CD1F808E00EFA04FE4CEA0E0C2C
:10099000C2F814C002684C69D2F80CC0CCF3C10C88
:1009A00000E0E1E04FEA4C0C04FA0CF4D1F810E05E
:1009B000DFF810C2BEF1010F42D0BEF1020F4DD0E0
:1009C000BEF1030F58D0BEF1040F63D0146E91F83E
:1009D00000C004F0F844B4EB8C6F03D1146E24F023
:1009E000004414660268546E91F800C004F0F844A4
:1009F000B4EB8C6F03D1546E24F00044546602684B
:100A0000946E91F800C004F0F844B4EB8C6F03D1FD
:100A1000946E24F0004494660268D46E91F800C08D
:100A200004F0F844B4EB8C6F03D1D46E24F000448E
:100A3000D4660268946804F00304012C3AD136E0CD
:100A4000D2F860E00EEA0C0E91F800C044EA8C6423
:100A50004EEA040E4EF000441466EAE7D2F864E071
:100A60000EEA0C0E91F800C044EA8C644EEA040EC3
:100A70004EF000445466DCE7D2F868E00EEA0C0E53
:100A800091F800C044EA8C644EEA040E4EF0004433
:100A90009466CEE7D2F86CE00EEA0C0E91F800C036
:100AA00044EA8C644EEA040E4EF00044C0E7146839
:100AB000E4075ED1CC68012C06D052F8B03F0C7828
:100AC000A740BB43136020E052F8B04F91F800C03C
:100AD00007FA0CF73C4314600A6804680A2A0AD330
:100AE000A769093A02EB420293409F438B68934007
:100AF0001F43A76109E06769521C02EB4202934061
:100B00009F438B6893401F43676109682E4A1029F1
:100B100004D0112905D0122906D02AE093681B02BF
:100B200004E09368DB0101E093685B02002B20DBAB
:100B300003684FF0A044A34202D1244F009700E085
:100B400000949F6807F00307012F02D11F68FF0779
:100B50000AD1009F8FB1BF6807F00307012F0CD1A6
:100B6000009F3F68FF0708D0016C41F0200101643D
:100B7000012580F83C602846AAE6102908D01129F2
:100B80001AD01229F5D1916841F480019160F0E703
:100B9000A342EED1916841F4000191600C490D4AE5
:100BA0000968B1FBF2F101EB8101490000E0491E47
:100BB00000910029FBD1DCE7A342DAD1916841F032
:100BC0008071E3E700F0FF83000300500001005054
:100BD0008000002040420F007047704770470000BF
:100BE000F0B54FF0000595B004002F462E46009555
:100BF00005D0206CC00648D4206C18B133E0012029
:100C000015B0F0BD6664E664A66484F83C602046D6
:100C100000F0D8F820688068C00024D42046FFF790
:100C2000B7FC0546206CC0061DD4E5B9206C20F445
:100C3000885040F0020020642068816821F0405113
:100C400081602068816841F080518160574858492F
:100C50000068B0FBF1F000EB8000400000E0401EB7
:100C600000900028FBD120688168C90002D5806807
:100C700080000AD5206C20F0020040F010002064B3
:100C8000606C40F0010060640125206CC0067DD4DA
:100C9000002D7BD12068816849077ED4216C21F426
:100CA000807141F00201216442494FF0A04290421C
:100CB00000D1414A0092826802F00302012A02D167
:100CC0000068C00710D1009840B1806800F00300B0
:100CD000012803D100980068C00705D188686268C0
:100CE00020F4403010438860D4E902100843616B5F
:100CF000012902D04FF4805200E00022617E42EAD6
:100D00004132104394F820203843012A0AD1A9B176
:100D1000216C21F0020141F020012164616C41F05D
:100D200001016164A16A012902D0E26A114308430A
:100D300021688A6812F00C0F08D013E0A18C1F4ABA
:100D400002EB4141014341F48030EBE7CA6844F2D1
:100D500002039A43CA60217E94F83020890341EA55
:100D6000420108432168CA68154B1A400243CA6011
:100D7000206901282068016B21F00F0102D1E2698E
:100D8000521E114301636664206C00E005E020F010
:100D9000020040F00100206406E0206C20F0020018
:100DA00040F0100020640125284629E7800000203B
:100DB00040420F0000030050000100500000FEFF01
:100DC00007C0F0FF70B586B0054614216846FFF7EE
:100DD00041FA2868B0F1A04F31D11A49486940F072
:100DE00080504861486900F080500590486940F49F
:100DF000003048614869002600F400300590072063
:100E000000900320CDE9010669464FF0904000F0C4
:100E1000B1F90E4C0C48C4E900068020C4E9026018
:100E200040002061800060612020C4E90606204661
:100E300000F02FF908B1FFF765FCAC63656206B0FE
:100E400070BD000000100240080002403801002080
:100E50002DE9F047044600689046894680684007BF
:100E60006ED494F83C0001280CD001204FF0A0462D
:100E700084F83C00D6F808034FF00007C00604D001
:100E8000012507E00220BDE8F0872046FFF7B6FB0A
:100E9000050002D084F83C7053E0206C40F60161FC
:100EA000884340F480702064D6F80803C00602D05E
:100EB0002068B04206D1206C20F4801020642068A5
:100EC000C06807E0216C41F4801121641E4988420A
:100ED00008D1F068800105D5206C20F4005040F462
:100EE00080502064206CC00404D5606C20F00600A3
:100EF000606400E0676484F83C70A16B134888620A
:100F0000A16B1348C862A16B1248086321681C20BA
:100F100008602068416841F0100141602068C168A4
:100F200041F00101C160216843464A464031A06B4F
:100F300000F0D6F82068816841F00401816000E08B
:100F4000022528469FE700000001005031050008F7
:100F50008B0500087505000810B540B190F8211008
:100F60000022022905D00421816380F8202001207D
:100F700010BD01680B6823F00E030B6001680B685D
:100F800023F001030B6090F84030C46B012101FA9B
:100F900003F3636080F8211080F82020002010BD4A
:100FA00010B590F821100024022903D00421816398
:100FB000012418E001680A6822F00E020A60016844
:100FC0000A6822F001020A6090F84020C36B0121F8
:100FD00001FA02F25A6080F82110002180F82010F6
:100FE000416B01B18847204610BDF0B4C16B0D685C
:100FF00001680C68066C042202FA06F32B420FD03B
:1010000063070DD50B689B0603D40B6823F004031C
:101010000B6090F840108A40C16B4A60C16A1BE0C7
:10102000022303FA06F72F424FF0000C4FF00102A3
:1010300016D0A70714D50C68A40605D40C6824F0B4
:101040000A040C6080F8212090F840108B40C16B9E
:101050004B6080F820C0816A002918D0F0BC084796
:101060000823B3402B4212D0230710D50B6823F07E
:101070000E030B6090F84010C36B02FA01F1596047
:10108000826380F8212080F820C0016BE4E7F0BC87
:10109000704770B5040021D0022084F82100226836
:1010A000116843F6F0708143D4E901031843D4E991
:1010B00003352B43184363691843A3691843E36955
:1010C0001843084310602046FFF7F6FA0020A0639B
:1010D000012184F8211084F8200070BD012070BD2A
:1010E00070B5044690F82000002501280CD001209E
:1010F00084F8200094F821600020012E06D084F8A6
:1011000020000225284670BD022070BD022684F80A
:101110002160A0632068066826F00106066020466C
:10112000FFF7DAFAE06A00282068016802D041F08F
:101130000E0106E041F00A0101602068016821F01B
:10114000040101602068016841F001010160D9E7F4
:1011500070B5044600F028F90546601C02D004482A
:101160000078044400F020F9401BA042FAD370BD7F
:10117000740000202DE9F04FDFF8009200230126D3
:101180000325A9F1040B85B00F2709F1040AABF17F
:10119000040EEAE006FA03F422407CD091F804C081
:1011A0000CF0030CBCF1010F02D0BCF1020F26D1F0
:1011B000D0F808C0CDF800C04FEA430C05FA0CF88F
:1011C000CDF810C0DDF800C02CEA080CCDF800C046
:1011D000D1F80C80DDF810C008FA0CF8DDF800C07A
:1011E00048EA0C08C0F80880D0F804C02CEA040CC7
:1011F0000C79C4F300149C4044EA0C0444600C795C
:10120000E443A4070DD0D0F80CC04FEA430805FA18
:1012100008F42CEA040C8C6804FA08F444EA0C0480
:10122000C4600C7904F00304022C19D1DC0800EB33
:1012300084040294246A4FEA437C4FEADC6CCDF8C4
:1012400010C007FA0CFC24EA0C04D1F81080DDF879
:1012500010C008FA0CF848EA0408029CC4F8208080
:1012600004684FEA430805FA08FC24EA0C0491F8E4
:1012700004C00CF0030C0CFA08FC4CEA040CC0F897
:1012800000C04C6814F4403F6ED03D4CD4F818C0F8
:101290004CF0010C00E067E0C4F818C0A46923F02A
:1012A000030C04F001040094364C64440294A468D6
:1012B0004FEA837C4FEA1C7807FA08FC24EA0C0406
:1012C000B0F1904F06D0DFF8C0C0604505D14FF0B7
:1012D000010C12E04FF0000C0FE0DFF8B0C06045E9
:1012E00002D14FF0020C08E0DFF8A4C0604502D143
:1012F0004FF0030C01E04FF0050C0CFA08FC4CEA2F
:10130000040C029CC4F808C0D9F80040CC46D1F8BF
:10131000048094435FEAC82800D51443CCF8004009
:10132000DAF80040D446D1F8048094435FEA882874
:1013300000D51443CCF80040DBF80040DC46D1F87F
:10134000048094435FEA883800D51443CCF8004009
:10135000DEF80040F446D1F8048094435FEAC838D0
:1013600000D51443CCF800405B1C0A6832FA03F441
:101370007FF410AF05B0BDE8F08F00000804014015
:10138000001002400000014000040048000800482E
:10139000000C00480069084000D0012070470AB1E5
:1013A0008161704781627047014880687047000022
:1013B0007400002010B590F8C020012A21D001222D
:1013C00080F8C020022380F8C1304B1C1BD003687A
:1013D000D3F8CC4344F00204C3F8CC430368D3F8F9
:1013E000CC4324F00C040C43C3F8CC430168D1F87F
:1013F000CC3343F00103C1F8CC3380F8C120002086
:1014000010BD022010BD0168D1F8CC3323F00203D7
:10141000C1F8CC33EAE7000070B590F8C130022B78
:101420003CD090F8C030012B38D0012500F8C05FC7
:10143000022343701388948803F4E053C4F3080430
:101440001C4313896FF07E4603F400732343148A10
:1014500004F480441C43938903F400432343948A97
:1014600006EA04441C43936903F000732343146A9F
:10147000D26904F080441C4302F00042224350F839
:10148000C03CB82404EBC1141959054E3140114336
:101490001951457000210170084670BD022070BDD1
:1014A0000020003C38B5040054D0022084F8C1006C
:1014B0000025C4F8C450C4F8C850C4F8CC50C4F8CF
:1014C000D050C4F8D450C4F8D850207AC0071BD0EC
:1014D00021492068884208D12048816941F00051A3
:1014E0008161806900F0005000902168086820F454
:1014F0004042208A00F44040104320F44052A08A29
:1015000000F4405010430860204600F029F8207A8B
:10151000800708D52168086820F44072A08900F48B
:10152000407010430860012084F8C10084F8C05066
:101530005FF00001C1EBC10004EB8000491C856134
:10154000C561056245628562C9B205630529F1D9A5
:10155000002038BD012038BD007401400010024059
:1015600008B500680649884208D10648816941F0FB
:1015700000518161806900F00050009008BD0000BA
:10158000007401400010024010B586B004461421DA
:101590006846FEF75FFE0F492068884218D10E4862
:1015A000416941F4003141614069694600F400300D
:1015B00005904FF47060009002200190002002908E
:1015C000032003900D2004904FF09040FFF7D2FDD0
:1015D00006B010BD007401400010024070B50D4609
:1015E0000446FFF7E1FE064607E0681C05D0FFF75A
:1015F000DBFE801BA8420DD865B12068D0F88803B7
:10160000C043C003F1D4012084F8C100002084F855
:10161000C00070BD072084F8C100032070BD70B504
:1016200090F8C130022B23D0022380F8C130052965
:1016300020D08023046803EBC115635923F007060B
:101640009368334323F01806D368334363519425DA
:10165000046805EBC115136863519824036804EB13
:10166000C11152685A50012180F8C110002070BD8C
:10167000022070BD0368196821F0070491682143B6
:1016800021F01804D1682143196003681168596179
:10169000516802689161E6E72DE9F04F90F8C1408A
:1016A000022C25D090F8C040012C21D04FF0010928
:1016B00080F8C090022480F8C14000274FF0070C4A
:1016C000052918D09C2404EBC116012A39D08024A6
:1016D000A8254FF4005A4FF4405B05EBC11504EB0D
:1016E000C114022A2FD0042A45D0082A0BD144E085
:1016F0000220BDE8F08F012A0AD0022A0CD0042A69
:101700000ED0082A10D080F8C1C080F8C0700EE05A
:1017100002681968D1610AE002681968516206E03E
:1017200002681968916202E002681968D16290F853
:10173000C110072948D080F8C19080F8C0700020FF
:10174000D7E7196835E04FF0A408D0F800C008EBDF
:10175000C1111A684CF801205968002901680A591A
:1017600022F440522ED00A5101680A59D3F804C01D
:1017700042EA0C0218E0196821E04FF0AC08D0F8FA
:1017800000C008EBC1111A684CF801205968002903
:1017900001680A5922F4404214D00A5101680A59DA
:1017A000D3F804C042EA8C020A515968514503D16A
:1017B000996802689151BAE75945B8D199680268A9
:1017C0005151B4E70A51B2E7012092E710B590F801
:1017D000C020012A0ED0012200F8C02F022343703E
:1017E00050F8C03C1C680C431C6042700021017022
:1017F000084610BD022010BD70B5044690F8C10027
:10180000022811D094F8C00001280ED0012584F8D8
:10181000C050022084F8C100204601F060FC84F82A
:10182000C150002084F8C00070BD022070BD10B50A
:1018300090F8C020012A10D0012200F8C02F022306
:10184000437050F8C03CD3F894430C43C3F894431E
:10185000427000210170084610BD022010BD10B575
:1018600090F8C020012A10D0012200F8C02F0223D6
:10187000437050F8C03CD3F898430C43C3F89843E6
:10188000427000210170084610BD022010BD2DE9F4
:10189000F041054690F8C10014460E46022825D0B6
:1018A00095F8C000012823D0012785F8C0700220D8
:1018B00085F8C100052E1DD0284601F077FCC6EB47
:1018C000C60005EB80002168016261684162A16881
:1018D0008162E168C162216901633146284601F0F5
:1018E000D1FB85F8C170002085F8C000BDE8F0810B
:1018F0000220FBE728680168D0F8A02321F020032C
:101900006169194321F40063A169194321F48063DB
:10191000E169194321F0C063216A194321F0006392
:10192000616A1943A36A21F0404141EA830121F031
:101930000053216B194322F48033E26A01601A4399
:101940002868C0F8A023BAE70248816802781144E9
:101950008160704774000020074810B5016841F0AD
:1019600010010160032000F06DF80F2000F006F870
:1019700000F024F8002010BD0020024070B50D4D8D
:1019800004464FF47A712878B1FBF0F00A490968EF
:10199000B1FBF0F000F00CFD48B9102C07D200228A
:1019A0002146501E00F02EF800206C6070BD012012
:1019B00070BD00007400002080000020094808B5B8
:1019C000816941F001018161816901F001010091AA
:1019D000C16941F08051C161C06900F08050009040
:1019E00008BD000000100240002809DB00F01F02C3
:1019F000012191404009800000F1E020C0F8001171
:101A000070470000F0B40E4B1B680C46C3F3022372
:101A1000C3F10705042D00D90425191D072901D29A
:101A2000002300E0DB1E012606FA05F1491E2140D5
:101A300099409E40761E16403143F0BC02F06DBACC
:101A40000CED00E0064900F0070208684FF6FF03BE
:101A5000184040EA0220034A104308607047000023
:101A60000CED00E00000FA052DE9F84F044600688F
:101A700000265C4DC0036ED5E869C00008D4E86953
:101A800040F08050E861E869012600F08050009045
:101A900055480168C90512D40168804641F4807137
:101AA0000160FFF781FC074605E000BFFFF77CFC03
:101AB000C01B642835D8D8F80000C005F6D5286AC0
:101AC00010F4407053D0A18801F4407181424ED08F
:101AD000286A4FF4803191FAA1F2B2FA82F29700AB
:101AE000424A4FF00108174420F44070C7F80084C0
:101AF00091FAA1F1B1FA81F102EB81010023C1F861
:101B000000342862C00732D0FFF74EFC074641F28E
:101B1000883A4FF0020907E0FFF746FCC11B514528
:101B200002D90320BDE8F88F99FAA9F1B1FA81F141
:101B300041F040014846B8EB511F01D129680CE043
:101B400090FAA0F1B1FA81F141F04001B0EB511FE0
:101B500002D1296A01E015E0696A99FAA9F0B0FAA0
:101B600080F000F01F0008FA00F21142D4D0286A79
:101B7000616820F44070084328621EB1E86920F0D3
:101B80008050E8612078C00705D0286BA16820F05C
:101B90000300084328632078800605D5286BE16898
:101BA00020F01000084328632078000605D5E86A75
:101BB000216920F4F8700843E8622088C00405D544
:101BC000286B616920F480700843286320884004F2
:101BD00005D5286BA16920F48050084328630020B4
:101BE000A0E70000001002400070004000004242E8
:101BF0002DE9F0470F46050069D04A4E306800F0E5
:101C00000700B84209D2306820F00700384330603E
:101C1000306800F00700B84259D12878424C80075C
:101C200005D56068A96820F0F00008436060287856
:101C3000C0073DD06968012001290DD0022923D0B9
:101C40005FF0020393FAA3F2B2FA82F242F02002AA
:101C5000520904D0226803E04FF40033F2E7626ACD
:101C600093FAA3F3B3FA83F303F01F0398400242FD
:101C70002DD0606820F0030008436060FFF794FBFC
:101C8000804641F288390CE04FF00073DAE700BF7C
:101C9000FFF78AFBA0EB0801494502D90320BDE804
:101CA000F0876068696800F00C00B0EB810FEFD13D
:101CB000306800F00700B8420BD9306820F0070008
:101CC00038433060306800F00700B84201D001208E
:101CD000E5E72878400705D56068E96820F4E0600A
:101CE000084360602878000706D56068296920F4F9
:101CF000605040EAC100606000F04EF86168F02278
:101D000092FAA2F201F0F001B2FA82F2D140074A4F
:101D1000515CC8400649086006480068FFF72EFE7F
:101D20000020BCE70020024000100240784100087B
:101D300080000020780000200848094900684968B0
:101D40004FF4E06292FAA2F201F4E061B2FA82F298
:101D5000D140044A515CC840704700008000002018
:101D60000010024088410008084809490068496895
:101D70004FF4605292FAA2F201F46051B2FA82F288
:101D8000D140044A515CC8407047000080000020E8
:101D900000100240884100080F4A10B551680F48F2
:101DA00001F00C03042B12D0082B10D10C4BC1F303
:101DB0008344D26A1C5D02F00F021033C9039A5C9F
:101DC00006D500231946FEF7FDF9A0FB040110BD5E
:101DD0000448A4FB000110BD0010024000127A006C
:101DE0005841000800093D002DE9F84F050071D069
:101DF0002878FC4EC0074FF0010425D070686704B6
:101E0000C0F38100012807D07068C0F38100022868
:101E10001BD17068C00318D597FAA7F0B0FA80F00C
:101E200040F02000400901D0306800E0706A97FA65
:101E3000A7F1B1FA81F101F01F0104FA01F10842A2
:101E400065D068680028D2D061E06868B0F5803F4E
:101E50000BD010B1B0F5A02F17D0306820F480302F
:101E60003060306820F4802002E0306840F4803038
:101E70003060F06AA96820F00F000843F0626868DB
:101E800020B3FFF791FA80460AE0306840F48020E2
:101E90003060EAE7FFF788FAA0EB0800642871D801
:101EA00097FAA7F0B0FA80F040F02000400901D086
:101EB000306800E0706A97FAA7F1B1FA81F101F099
:101EC0001F0104FA01F10842E4D020E0FFF76CFAA8
:101ED000804607E0C2E000BFFFF766FAA0EB08000B
:101EE0006428DCD897FAA7F0B0FA80F040F0200020
:101EF000400901D0306800E0706A97FAA7F1B1FAA2
:101F000081F101F01F0104FA01F10842E4D12878BF
:101F1000DFF8D48280074FF0000A4FF0020730D577
:101F200070684FF0F80B10F00C0F07D07068C0F31A
:101F30008100022827D17068C00324D497FAA7F043
:101F4000B0FA80F040F02000400901D0306800E095
:101F5000706A97FAA7F1B1FA81F101F01F0104FA52
:101F600001F1084202D02869012877D130689BFA34
:101F7000ABF220F0F8016869B2FA82F290400143B6
:101F800031605AE064E1286988B394FAA4F0B0FAA9
:101F900080F048F82040FFF707FA814606E000BFCE
:101FA000FFF702FAA0EB090002289AD897FAA7F0E7
:101FB000B0FA80F040F02000400901D0306800E025
:101FC000706A97FAA7F1B1FA81F101F01F0104FAE2
:101FD00001F10842E4D030689BFAABF26969B2FAC9
:101FE00082F220F0F80091400843306025E0FFE7DE
:101FF00094FAA4F0B0FA80F048F820A0FFF7D4F9E2
:10200000814605E0FFF7D0F9A0EB09000228CCD803
:1020100097FAA7F0B0FA80F040F02000400901D014
:10202000306800E0706A97FAA7F1B1FA81F101F027
:102030001F0104FA01F10842E4D1287800076CD5A9
:10204000A869A8B394FAA4F0B0FA80F008EB800075
:10205000C0F88044FFF7A8F9814607E0A4E100BF7B
:10206000FFF7A2F9A0EB090002289ED897FAA7F083
:10207000B0FA80F040F06000B4EB501F01D130683E
:102080000BE097FAA7F0B0FA80F040F06000B7EBF1
:10209000501F01D1306A00E0706A97FAA7F1B1FAD7
:1020A00081F101F01F0104FA01F21042D8D034E0AE
:1020B000FFE794FAA4F1B1FA81F108EB8101C1F8CC
:1020C00080A4FFF771F9814606E000BFFFF76CF9C5
:1020D000A0EB090002289AD897FAA7F0B0FA80F08E
:1020E00040F06000B4EB501F01D130680BE097FA6C
:1020F000A7F0B0FA80F040F06000B7EB501F01D1BC
:10210000306A00E0706A97FAA7F1B1FA81F101F044
:102110001F0104FA01F21042D8D12878400768D58F
:10212000F0694FF00009C00009D4F06940F0805018
:10213000F061F0694FF0010900F0805000902B48E9
:102140000168C90512D4016841F480710160FFF78C
:102150002BF9834606E000BFFFF726F9A0EB0B0042
:10216000642875D821480068C005F5D5E8680128BD
:102170000AD008B1052811D0306A20F00100306281
:10218000306A20F0040002E0306A40F00100306262
:10219000E86868B3FFF708F983460DE0306A40F05D
:1021A00004003062F0E700BFFFF7FEF8A0EB0B0180
:1021B00041F2883081424BD897FAA7F0B0FA80F00C
:1021C00040F04000B4EB501F01D1306813E097FAA3
:1021D000A7F0B0FA80F040F04000B7EB501F09D1F3
:1021E000306A08E0001002400000424200700040E7
:1021F0000CE040E0706A97FAA7F1B1FA81F101F0C2
:102200001F0104FA01F21042CED02DE0FFF7CCF806
:10221000834607E0FFF7C8F8A0EB0B0141F28830D6
:10222000814215D897FAA7F0B0FA80F040F040004C
:10223000B4EB501F01D130680CE097FAA7F0B0FA68
:1022400080F040F04000B7EB501F02D1306A01E04F
:1022500083E0706A97FAA7F1B1FA81F101F01F01EA
:1022600004FA01F21042D5D1B9F1000F03D0F069A0
:1022700020F08050F061E86980B37168C1F381019A
:10228000022977D04FF080714F000228504609D0C4
:1022900091FAA1F1B1FA81F148F82100FFF784F831
:1022A00005465DE0894691FAA1F1B1FA81F1C24695
:1022B00048F82100FFF778F8804605E0FFF774F84A
:1022C000A0EB0800022848D897FAA7F0B0FA80F0EF
:1022D00040F02000400902D0306801E066E0706AFA
:1022E00097FAA7F1B1FA81F101F01F0104FA01F1A7
:1022F0000842E3D1D5E908100843716821F474114C
:102300000843706099FAA9F0B0FA80F04AF82040CA
:10231000FFF74AF8054604E0FFF746F8401B02289D
:102320001BD897FAA7F0B0FA80F040F020004009DF
:1023300001D0306800E0706A97FAA7F1B1FA81F134
:1023400001F01F0104FA01F10842E5D02EE000BFC0
:10235000FFF72AF8401B022802D90320BDE8F88FB6
:1023600097FAA7F0B0FA80F040F02000400902D0C0
:10237000306801E00BE0706A97FAA7F1B1FA81F1D9
:1023800001F01F0104FA01F10842E1D10EE0012839
:10239000E4D070682A6A00F48031914204D1696AFD
:1023A00000F47010884201D00120D7E70020D5E763
:1023B00010B5401EB0F1807F01D3012010BD4FF059
:1023C000E02460610F21601701F0A7FD0020A061EB
:1023D00007202061002010BD704770477047000043
:1023E000F0B590F83C20012A2CD0012480F83C4024
:1023F000022280F83D2003685A689D68124EB3425D
:1024000003D122F470074A683A4322F070070A6841
:102410003A435A600268B24208D0B2F1804F05D008
:102420000A4B9A4202D00A4B9A4204D1896825F09D
:1024300080031943916080F83D40002180F83C10F2
:102440000846F0BD0220F0BD002C01400004004011
:102450000040014010B5040003D094F83D0010B1D5
:1024600007E0012010BD002084F83C00204600F069
:1024700023F8022084F83D00211D206801F0F6F9C0
:10248000012084F8480084F83E0084F83F0084F876
:10249000400084F8410084F8420084F8430084F846
:1024A000440084F8450084F8460084F8470084F826
:1024B0003D00002010BD000008B500680B498842AF
:1024C00012D10B48C16941F00201C161C06900220B
:1024D00000F00200009011461D20FFF793FABDE8BE
:1024E00008401D20FFF780BA08BD0000000400402E
:1024F0000010024090F83D10012901D001207047E2
:10250000022180F83D100168CA6842F00102CA60E9
:1025100000680D49884208D0B0F1804F05D00B49C2
:10252000884202D00A49884207D18168094A11408D
:10253000062906D0B1F5803F03D0016841F00101C2
:102540000160002070470000002C014000040040A2
:10255000004001400700010070B5044690F83C00BF
:102560000025012817D0012684F83C60022084F859
:102570003D00226890682F4B184020F47F40906007
:102580000868502838D00DDC20284FD005DC90B3E7
:10259000102811D14AE0022070BD302846D04028D2
:1025A0000AD13BE060282FD070280DD0B0F5805FB5
:1025B00003D0B0F5005F12D0012584F83D60002003
:1025C00084F83C00284670BDCB68D1E90121206821
:1025D00001F096F92068816841F0770109E0CB6845
:1025E000D1E90121206801F08BF92068816841F46C
:1025F00080418160E1E719E0CA684968206801F01C
:1026000091F95021206806E0CA684968206801F005
:102610009AF96021206801F07DF9CEE7CA6849681F
:10262000206801F07FF940212068F4E72268014624
:102630001046F0E788FFFEFF70472DE9F0410446A1
:102640000068C66805694FF00007A90713D5B107F0
:1026500011D5F91E0161012020772068806980076B
:10266000204602D0FFF7E8FF04E000F089F820469A
:1026700000F087F82777680716D5700714D521680A
:102680006FF004000861022020772068806910F450
:10269000407F204602D0FFF7CFFF04E000F070F843
:1026A000204600F06EF82777280715D5300713D598
:1026B00021686FF008000861042020772068C06955
:1026C0008007204602D0FFF7B7FF04E000F058F87B
:1026D000204600F056F82777E80616D5F00614D500
:1026E00021686FF010000861082020772068C06919
:1026F00010F4407F204602D0FFF79EFF04E000F078
:102700003FF8204600F03DF82777E80708D0F007AB
:1027100006D021686FF001000861204600F032F811
:10272000280608D5300606D521686FF080000861BC
:102730002046FFF752FEE80508D5300606D5216889
:102740006FF4807008612046FFF746FE680608D5E2
:10275000700606D521686FF040000861204600F041
:1027600027FAA8060AD5B00608D521686FF0200020
:1027700008612046BDE8F041FFF730BEBDE8F081BA
:10278000704770472DE9F05FF0492DED028B00682E
:1027900088427CD1DFF8B8B34FF4005A0122514689
:1027A0005846FEF7FCFDEB4C94ED110A6178FDEE06
:1027B000C00A10EE900A9FEDE88AE84E814206F1C9
:1027C00024071FD0BCEEC00A10EE100A10F0FF0163
:1027D00061704FF00100A07086ED058AE04887ED3A
:1027E000058A02D0012906D00CE0DC49091DC0E9A8
:1027F0000161091F04E0D9492831C0E90171091FAD
:102800000831C160D34821785030DFF85893002553
:1028100079B18188226A114421620088626A104479
:10282000804660622089401C80B2208101280DD042
:1028300033E04088FDF78BFD9FEDCB1B53EC112B54
:10284000FDF713FDFDF7A3FD20636DE000EE101A08
:102850002581B8EE400A10EE100AFDF785FD9FEDC8
:10286000C41B53EC112BFDF700FDFDF790FD00EEAE
:10287000108A6063B8EE400A10EE100AFDF774FD8E
:102880009FEDBD1B53EC112BFDF7EFFC00E058E171
:10289000FDF77DFD25626562E063B949606B4FF429
:1028A0007A7888420DDB0F21AE48FEF7D8FFA4F8F6
:1028B0000A8084ED058A84ED068A86ED058A87ED17
:1028C000058AA08960B1606BB0F17E5F08DB0F21E3
:1028D000A448FEF7C4FFA4F80A804046A58114E08E
:1028E000608901280FD1C820A081D9F800204FF4B9
:1028F0003450C2F89C00D9F80010C1F81C010F2117
:102900009848FEF794FF608910B180B2401E608144
:10291000A08908B1401EA08194ED0D0AD4ED0F0AE4
:1029200030EE600A84ED0E0A607808B101287AD191
:102930006089E8BBA089D8BB94ED070A4FF07C58AA
:1029400010EE100A404502DCB6EE000A06E010EE7A
:10295000100A8C49884201DBB1EE040A84ED070AB3
:10296000D4ED0E0A20EE800A84ED100AA07870B132
:10297000D4ED040A94ED0C1A70EEC10AC6ED040AF7
:10298000D4ED0F0A70EE600AC7ED040AA570207836
:10299000F0B1D4ED0F0A714830EE600A243000F037
:1029A000B3FE97ED070AD4ED060A30EE200A00E0E8
:1029B00039E084ED060A94ED050A00BF10EE101A06
:1029C0007148DFED720A414514DCB6EE000A17E0EB
:1029D00094ED040AD4ED0C0A604830EE600A00F071
:1029E00093FE96ED070AD4ED050A30EE200A84ED39
:1029F000050AE3E710EE101A814201DBB0EE600A2F
:102A000084ED050A94ED060A10EE101A414502DC29
:102A1000B6EE000A05E010EE101A814201DBB0EEBE
:102A2000600A84ED060A6089A189084347D194EDC4
:102A3000050A9FED571A574AC0EE010AC4ED0A0A6B
:102A4000D4ED061A10EE900A81EE810A84ED0B0A8D
:102A5000DFED511A51499FED521A904202DCF0EE1F
:102A6000610A05E010EE900A884201DBF0EE410AAF
:102A700010EE100AC4ED0A0A904202DCB0EE610AC0
:102A800005E010EE100A884201DBB0EE410A84ED49
:102A90000B0A9FED441AD9F8002060EE810AFCEE83
:102AA000E00A10EE901AC2F89C1020EE010AD9F844
:102AB0000000BCEEC00A10EE101AC0F81C112078FD
:102AC00048B100202070E088401C80B2E080B0F562
:102AD000967F02D02CE00120F4E7E580617832484F
:102AE00011B101290FD01EE094ED0C0A80ED000A0F
:102AF00094ED0D0A80ED010A94ED0F0A80ED020AB3
:102B000094ED0E0A0DE094ED0C0A80ED000A94EDB0
:102B1000100A80ED010A94ED0F0A80ED020A94ED8F
:102B2000060A80ED030A14221F49204800F062FAC9
:102B3000BDEC028B51465846BDE8F05F0022FEF71F
:102B40002EBCBDEC028BBDE8F09F000000040040ED
:102B5000000800481C00002000000000A000002029
:102B6000840000207C010020A24E42DC2D8F6B3FB0
:102B70001117D35F28655C3FA88AD8DFBB144B3F91
:102B8000000090400000A0403333A9423333A942F3
:102B900000009441CDCC4C3DCDCC4C3D3333733F04
:102BA0003333733F0000614700000020A40200207F
:102BB000704710B50446D0F88000202801D00220CC
:102BC00010BD61B15AB10120206600206066204628
:102BD00001F0FCF80028F3D1216E012901D0012079
:102BE00010BD226810211162226852E8001F41F0D6
:102BF000100142E80013002BF6D110BD704770475A
:102C0000704700002DE9F04102680446D069116860
:102C1000936840F60F0528424FF000054FF002067A
:102C200005D187067ED58F067CD5A16E2AE1DFF817
:102C300084C203F0010701EA0C0C57EA0C0C71D0B6
:102C40005FEAC07C0CD05FEAC15C09D54FF0010C93
:102C5000C2F820C0D4F8842042F00102C4F88420D5
:102C6000820709D5DA0707D022681662D4F88420D3
:102C700042F00402C4F8842042070AD5DA0708D0DB
:102C8000236804221A62D4F8842042F00202C4F8B5
:102C9000842002070CD501F020023A4308D02368B3
:102CA00008221A62D4F8842042F00802C4F8842072
:102CB00002050BD54A0109D523684FF400621A6258
:102CC000D4F8842042F02002C4F88420D4F8842070
:102CD000002A36D0800605D5880603D5A16E09B135
:102CE00020468847D4F8840021688968490602D4C0
:102CF00010F0280F27D0204600F096FF206880684B
:102D000040061BD52068083050E8001F21F0400124
:102D100040E80012002AF5D1606F78B1664941633E
:102D2000606F00E015E0FEF73BF9002809D0606F06
:102D3000416B00E02046BDE8F04108472046FFF720
:102D40005FFFBDE8F0812046FFF75AFFC4F88450CA
:102D5000F7E7D4F860C02027BCF1010F7DD15FEA0E
:102D6000C06C7ED55FEAC16C7BD5102010622068F4
:102D70008068400642D5616F086840680004000C16
:102D8000DFD0B4F858208242DBD9A4F85A00886911
:102D900020282BD0216851E8000F20F4807041E8F2
:102DA0000002002AF6D12068083050E8001F21F008
:102DB000010140E80012002AF5D12068083050E8EF
:102DC000001F21F0400140E80012002AF5D1C4F8AC
:102DD00080702566206850E8001F21F0100140E84F
:102DE0000012002AF6D1606FFEF7B6F86666B4F8F6
:102DF0005800B4F85A10401A81B22CE0B4F85800C8
:102E0000B4F85A10401A81B2B4F85A00002898D089
:102E1000002996D0226852E8000F20F4907042E812
:102E20000003002BF6D12068083050E8002F22F074
:102E3000010240E80023002BF5D1C4F8807025661C
:102E4000A566206850E8002F22F0100240E8002319
:102E5000002BF6D16666204600E002E0FFF7CEFECA
:102E60006FE7C60209D55B0207D54FF480101062E8
:102E70002046BDE8F041FFF7C2BE020606D50A06AD
:102E800004D5E16E00297FF455AF5AE74006E7D537
:102E90004806E5D52046026852E8001F21F04001AF
:102EA00042E80013002BF6D1C767C56600F0E8F8CA
:102EB00047E7000020010004DB3A000810B50400D9
:102EC00002D0E06F10B107E0012010BD002084F8AF
:102ED0007800204600F026F82420E067206801688A
:102EE00021F001010160606A10B1204600F03DFD53
:102EF000204600F0CBFE0128E7D02068416821F48D
:102F0000904141602068816821F02A018160206839
:102F1000016841F0010101602046BDE8104000F069
:102F200088BD0000F0B587B0064614216846FDF75D
:102F300091F92A49306888424ED12948816941F483
:102F400080418161816901F480410591416941F4C9
:102F5000802141614069002400F480200590C02058
:102F600000900220CDE90104032003900720049083
:102F700069461C48FEF7FEF81C4D1B488027C5E932
:102F80000004C5E902472C616C61AC612846EC6124
:102F9000FEF77FF808B1FDF7B5FB75676E62134D5C
:102FA00011484435143801C5102091C50F4845F823
:102FB000104944306C61AC61EC61FEF76AF808B10D
:102FC000FDF7A0FB35670022114625206E62FEF753
:102FD00019FD2520FEF708FD07B0F0BD00380140BF
:102FE0000010024000040048580002402C0300205A
:102FF0007047704770B50446C06F202801D002208A
:1030000070BD29B322B3E164A4F85020A4F8522083
:103010000021C4F884102120E067206FD0B1154B47
:103020008362236F1448D862236F14481863206F9B
:10303000134641632068256F00F128022846E16CA1
:10304000FEF74EF830B11020C4F884002020E0676D
:10305000012070BD2168402008622068083050E8D7
:10306000001F41F0800140E80012002AF5D1002045
:1030700070BD0000DF3B00081F3C0008EF3A00086D
:1030800070477047062911D2DFE801F00911171DBA
:1030900023030068D0F8841341F0010104E00068C4
:1030A000D0F8841341F00201C0F88413704700681F
:1030B000D0F8841341F00401F6E70068D0F88413D7
:1030C00041F00801F0E70068D0F8841341F01001E6
:1030D000EAE70068D0F8841341F02001E4E7F0B596
:1030E0000024E425076805EBC11657F806C0B8258B
:1030F00005EBC1157D59202A27D00CDC042A15D0F8
:1031000004DC012A12D0022A2BD11EE0082A1CD08E
:10311000102A26D10AE0402A08D0802A15D0B2F51C
:10312000807F03D0B2F5007F1BD10EE04FF0BC0EC4
:103130000EEBC11E5A6847F80E204FF0C00E07680C
:103140000EEBC1119A687A500BE0C42404EBC11451
:103150005A683A51C827046807EBC1119A6862504F
:103160001024FE21A1401A682CEA010CA240D96863
:1031700042EA0C02A14011431A69D3F814C0174661
:10318000A2400A430CFA04FC99694CEA020CA140E3
:1031900041EA0C01082F06D1AA0504D4AA0102D4E1
:1031A000DA69A240114300688151F0BD2DE9F04F6A
:1031B0008024036804EBC1169C5924F070449C5190
:1031C00003689A469D59E82404EBC114A64653F8B7
:1031D0000490E42404EBC114A3461C59D3F8A03393
:1031E00025F0200755693D4325F4006795693D4367
:1031F00025F48067D5693D4325F0C067156A3D43D6
:1032000025F00067556A3D4325F07047956A3D43B8
:10321000176B25F40035B7F1005F01D145F4003597
:1032200025F04007556BD2F848802F4327F4802CB7
:10323000176D47EA0C0727F0FC7748EA070892F871
:10324000387029F01F0C07F01F0747EA0C0727F01A
:10325000004CD76B47EA0C0725B924F4807C146C2A
:1032600044EA0C04D2F844C0BCF5606F02D0BCF54F
:10327000F05F01D1402D03D124F4F0544CEA040452
:10328000D56C052921D2DFE801F003090F151B00D9
:10329000D26A23F4003343EA420316E0D26A23F4ED
:1032A000802343EA820310E0D26A23F4002343EA36
:1032B000C2030AE0D26A23F4801343EA021304E053
:1032C000D26A23F4001343EA42134AF806800668E0
:1032D00046F80E70066846F80B40D424026804EBEA
:1032E000C11155500068C0F8A033BDE8F08FFEE76B
:1032F00070B58AB000240694079418216846089493
:10330000FCF7A8FF23484FF0A0410125C0E90014B5
:1033100005618460457680F82040C0E90A540326A0
:10332000C661C46080F83050042141610476446372
:10333000FDF756FC08B1FDF7E5F906A91548069416
:10334000FDF732FA08B1FDF7DDF90620CDE90204F8
:1033500000950195049469460E480594FDF794FA8A
:1033600008B1FDF7CFF902200090019069460948A5
:10337000FDF78AFA08B1FDF7C5F9009669460548D8
:103380000196FDF781FA002801D0FDF7BBF90AB0DC
:1033900070BD0000E8000020114808B5416941F007
:1033A000010141614069002200F0010000901146D6
:1033B0000B20FEF727FB0B20FEF716FB0022114621
:1033C0000E20FEF71FFB0E20FEF70EFB002211461B
:1033D0000F20FEF717FBBDE808400F20FEF704BBE7
:1033E0000010024070B586B014216846FCF732FF29
:1033F0001E48416941F400214161416901F4002105
:103400000591416941F480014161416901F4800104
:103410000591416941F400314161416901F4003194
:103420000591416941F4802141614069104E00F4E9
:1034300080204FF400540590002221463046FDF7CD
:10344000AEFF0125CDE900450024029469463046CF
:103450000394FDF78FFE4FF4C0408DE831006946BC
:103460000448FDF787FE06B070BD00000010024062
:10347000000800480004004870B5AEB0002426944F
:1034800027942894542168462994FCF7E3FE2A9453
:103490002B9424211DA82C94FCF7DCFE202115A8D8
:1034A000FCF7D8FE6D486C49C0E900148460FDF754
:1034B000F9FF08B1FDF726F90C216848FDF77AFFFE
:1034C00008B1FDF71FF90A216448FEF787F808B133
:1034D000FDF718F9082526AA4FF461400126299521
:1034E00082E8510005215D48FEF799F808B1FDF723
:1034F00009F9009401940294CDE903464FF000606D
:10350000CDE9084005940694079480000A94CDE91B
:103510000B406A4605215148FEF7B9F908B1FDF79D
:10352000F1F84FF4E1402A902AAB012205214B48E3
:10353000FEF7B2F808B1FDF7E5F826AA00214748E2
:10354000FEF76DF808B1FDF7DDF8009401940D94D5
:103550004FF480700E94CDE90F401020CDE9124059
:1035600011946A4600213D481494FEF790F908B181
:10357000FDF7C8F8202013906A4601213748FEF76E
:1035800086F908B1FDF7BEF82AAB012200213348C5
:10359000FEF782F808B1FDF7B5F8FA20CDE91D4035
:1035A0001F942094CDE92140239424941DAA002146
:1035B0002A482594FDF730FF08B1FDF7A3F81DAAAE
:1035C00001212648FDF728FF08B1FDF79BF80420EC
:1035D000CDE91540CDE9175419941A941B9415ABF5
:1035E000012200211D481C94FEF706F908B1FDF7E1
:1035F00089F815AB042201211848FEF7FDF808B13F
:10360000FDF780F8169415AB022200211348179499
:10361000FEF7F2F808B1FDF775F815AB08220121A5
:103620000E48FEF7E9F808B1FDF76CF826AA01216B
:103630000A48FDF7F4FF08B1FDF764F801222AAB50
:1036400011460648FEF728F808B1FDF75BF8034875
:10365000FDF79AFF2EB070BD007401407C01002080
:1036600010B588B000241748009401940294039484
:10367000049405941249069401604721C0E901149D
:103680003121C0E9031480218161FEF7E3FE08B116
:10369000FDF738F84FF48050009069460948FEF76E
:1036A0005BFF08B1FDF72EF8049404A905480694C1
:1036B000FEF796FE002801D0FDF724F808B010BDF3
:1036C00000040040580200200D4810B50B4901606D
:1036D0004FF4E1314160002181600C22C160C0E9FA
:1036E00004128161C16101624162FFF7E7FB0028BA
:1036F00003D0BDE81040FDF705B810BD003801400B
:10370000A4020020FEE7FEE790ED032A80ED042AE4
:1037100080ED030AD0ED000A60EE202AC0ED072AF2
:10372000D0ED050A90ED011A70EE810AC0ED050A90
:1037300090ED061AF1EE411AF4EEE10AF1EE10FAFC
:1037400002D8F0EE610A06E0F4EEC10AF1EE10FADA
:1037500001DBF0EE410AC0ED050A72EEA00A30EE80
:10376000420A90ED021A40EE010AC0ED070A90ED00
:10377000080AB1EE401AF4EEC10AF1EE10FA02D8CE
:10378000F0EE410A06E0F4EEC00AF1EE10FA01DBB9
:10379000F0EE400AC0ED070A70477047704700001E
:1037A00007484179AF2909D10179064A90ED000A0D
:1037B00052F8211081ED000A00214171704700008C
:1037C0001400002084000020FEF7BEB830B597B08A
:1037D00028216846FCF73EFD142111A8FCF73AFDAC
:1037E0001C210AA8FCF736FD01210804CDE90010D0
:1037F0000024029402250491CDE907504FF4E01013
:1038000009906846FEF7F0FA08B172B6FEE70F209D
:10381000CDE911054FF48060CDE91340022111A8D4
:103820001594FEF7E5F908B172B6FEE744F281009F
:103830000A904FF480700E90000110900C940AA82A
:10384000FEF712F9002801D072B6FEE717B030BDBE
:103850000248016841F470010160704788ED00E0A2
:103860000148FEF7EABE000058020020F0B50268E9
:103870001E4B1F4F4FF0804C984203D0604501D043
:10388000B84203D122F070044A682243194C1A4D01
:103890001A4E984209D0604507D0B84205D0A042E0
:1038A00003D0A84201D0B04203D122F44077CA68C5
:1038B0003A434F6922F080023A4302608A68C2624A
:1038C0000A688262984205D0A04203D0A84201D083
:1038D000B04201D109690163012141610169C90750
:1038E00003D0016921F001010161F0BD002C01400C
:1038F00000040040004001400044014000480140F5
:1039000010B5846842EA032224F47F440A43224328
:10391000826010BD826822F070020A4342F0070103
:103920008160704710B5036A046A24F001040462E0
:10393000846924F0F00444EA021423F00A020A43E2
:103940008461026210BD10B5036A046A24F0100499
:103950000462846923F0A00324F4704444EA023230
:1039600043EA01118261016210BD90F82410090739
:1039700006D501684A68436B22F400421A434A6044
:1039800090F82410C90706D001684A68836A22F4B7
:1039900000321A434A6090F82410890706D501685E
:1039A0004A68C36A22F480321A434A6090F82410AD
:1039B000490706D501684A68036B22F480221A433E
:1039C0004A6090F82410C90606D501688A68836B9E
:1039D00022F480521A438A6090F82410890606D592
:1039E00001688A68C36B22F400521A438A6090F817
:1039F0002410490611D501684A68036C22F480122C
:103A00001A434A60016CB1F5801F06D101684A680B
:103A1000436C22F4C0021A434A6090F8241009064D
:103A200006D501684A68806C22F4002202434A608D
:103A300070472DE9F84300260446C0F88460FDF77E
:103A4000B3FC8046206800684FF0200500076FF047
:103A50007E4712D54346002229042046009700F0F5
:103A600005FA50B1216851E8000F20F0800041E8CC
:103A70000002002AF6D1E56721E0206800684007CF
:103A800022D5434600224FF480012046009700F0E3
:103A9000EDF9C8B1216851E8000F20F4907041E8B9
:103AA0000002002AF6D12068083050E8001F21F0FB
:103AB000010140E80012002AF5D1C4F8805084F8D2
:103AC00078600320BDE8F883E567C4F8805044F8C7
:103AD000606F666026760020F4E710B5406A00212A
:103AE000A0F85A10A0F85210FFF78AF810BD70B570
:103AF000446AE06FD4F88050216889684FF000066E
:103B0000090606D5212804D1A4F85260204600F009
:103B1000B1F820688068400606D5222D04D1A4F8AB
:103B20005A60204600F080F8D4F8840040F010007D
:103B3000C4F884002046FFF763F870BD10B5014655
:103B4000406A8969002220292DD0A0F85A200368F4
:103B500053E8001F21F4807143E80014002CF6D1D3
:103B60000168083151E8003F23F0010341E80034C7
:103B7000002CF5D10168083151E8003F23F04003E3
:103B800041E80034002CF5D12021C0F88010016EEE
:103B9000012908D1016851E8003F23F0100341E8F2
:103BA0000034002CF6D14266016E012902D0FFF7E5
:103BB0001FFA10BDB0F85810FFF720F810BD10B56F
:103BC000406A01214166016E012902D0FFF711FA16
:103BD00010BDB0F858104908FFF710F810BD10B527
:103BE0000146406A8969202916D00021A0F85210A8
:103BF0000168083151E8002F22F0800241E80023DB
:103C0000002BF5D1026852E8001F41F0400142E864
:103C10000013002BF6D110BDFFF732FA10BD10B51E
:103C2000406AFFF72EFA10BD016851E8002F22F418
:103C3000907241E80023002BF6D10168083151E869
:103C4000002F22F0010241E80023002BF5D1016E84
:103C5000012908D1026852E8001F21F0100142E852
:103C60000013002BF6D12021C0F88010002101663E
:103C700081667047026852E8001F21F0C00142E8E7
:103C80000013002BF6D12021C167704770B50446A0
:103C900080682169E269084361690025114322684F
:103CA00008431168434B1940014311602068416883
:103CB000E26821F4405111434160A169206A084340
:103CC00021688A6822F4306202438A603A49206897
:103CD000884210D13948006B10F0030011D0012840
:103CE00005D0022805D003280DD102210CE00421C3
:103CF0000AE0082108E03249884202D0314988426E
:103D000001D1002100E01021E3694FF400402E4A68
:103D10004FF6EF76834226D1092941D2DFE801F040
:103D200005080B400D4040401000FEF705F806E086
:103D3000FEF71AF803E0104602E0FEF72DF880B314
:103D40004100606801EB5001B1FBF0F0A0F11001FF
:103D5000B14225D84FF6F0710140C0F34200014353
:103D60002068C16021E009291AD2DFE801F00508C6
:103D70000B190D1919191000FDF7DEFF06E0FDF70C
:103D8000F3FF03E0104602E0FEF706F848B1616871
:103D900000EB5100B0FBF1F0A0F11001B14201D9EC
:103DA000012502E0216880B2C8600020A066E066BC
:103DB000284670BDF369FFEF003801400010024053
:103DC000004400400048004000127A0070B5416590
:103DD000A0F8582000210446C0F884102220C4F81E
:103DE0008000606FD0B11E4B8362636F1D48D86244
:103DF000636F1D481863606F13464163656D2168EA
:103E00002A462431606FFDF76BF938B11020C4F8F1
:103E100084002020C4F88000012070BD206940B1DA
:103E2000216851E8000F40F4807041E80002002A48
:103E3000F6D12068083050E8001F41F0010140E849
:103E40000012002AF5D12068083050E8001F41F028
:103E5000400140E80012002AF5D1002070BD0000AA
:103E60003D3B0008BF3B0008EF3A00082DE9F04752
:103E7000994617460D4604464FF00008089E33E069
:103E8000701C31D0FDF790FAA0EB0900B04218D8B1
:103E9000BEB120680168490726D5802D24D0402D69
:103EA00022D0C169C94309070DD4082505622046FF
:103EB000FFF7BAFEC4F8845084F878800120BDE88A
:103EC000F0870320FBE7C069C04300050CD42168DC
:103ED0004FF4006008622046FFF7A6FE2020C4F8D9
:103EE000840084F87880ECE72068C06935EA000037
:103EF00004D00020B842C3D00020E0E70120F9E759
:103F000010B50448FEF77EFEBDE810400148FCF7FE
:103F1000ADBB0000A4020020FEE70907090E00283F
:103F200004DB00F1E02080F80014704700F00F007F
:103F300000F1E02080F8141D704702E008C8121F4D
:103F400008C1002AFAD170477047002001E001C182
:103F5000121F002AFBD170472DED028BFDF7FCFCF0
:103F6000FFF734FCFFF73EFAFFF716FAFFF784FA83
:103F7000FFF7BEF9FFF774FBFFF7A6FB00216848C7
:103F8000FCF7C2FBC820FDF7E3F806226549644848
:103F9000FCF75EFF634964483439016063490A1DD8
:103FA000C0E90112121DC2605E4A0C3A0261343A45
:103FB0009FED5F1A426181ED001ADFED5E0AC1EDEF
:103FC000010A9FED5D0A81ED020A9FED5C0A81ED19
:103FD000060A81ED080ADFED5A1A01F124000622D3
:103FE000C0ED001AC0ED010A80ED021A80ED060A4C
:103FF00080ED080A53495448FEF7DBFD4FF4E021F9
:104000005248FDF7E3FB0F215048FDF710FC4F48E5
:104010004FF4E1410268D16102684910C2F89C1076
:104020000068C0F81C114A48FEF764FA3D4C494D3F
:1040300000264FF4005842F2107AB6EE008A4FF094
:10404000010B4FF48049503C474641462846FDF756
:10405000A1F900BBE078F0B9A06C504519D194EDFE
:10406000070A30EE080A10EE100A84ED070AB0F1D4
:104070007C5F02DCB6EE000A06E010EE100AB0F13A
:10408000804F01DBB0EE000A84ED070A84F803B02C
:1040900001E0401CA06439462846FDF77BF938B1A1
:1040A000E07828B1A06C10B1401EA06400D1E67089
:1040B0004F4649462846FDF76DF900BB2079F0B917
:1040C000E06C504519D194ED070A30EE480A10EE25
:1040D000100A84ED070AB0F17C5F02DCB6EE000A3C
:1040E00006E010EE100AB0F1804F01DBB0EE000ADE
:1040F00084ED070A84F804B001E0401CE06439460E
:104100002846FDF747F900289ED0207900289BD04B
:10411000E06C10B1401EE06496D1267194E7000077
:10412000E80000206C00002084000020A000002097
:104130000AD7233D000000008FC2F53D33332942EA
:104140008FC2753D14000020A40200207C010020D5
:10415000580200200004004802030405060708096D
:104160000A0B0C0D0E0F10100102030405060708C0
:10417000090A0B0C0D0E0F100000000000000000DB
:1041800001020304060708090000000001020304FD
:10419000B041000800000020840000003A3F000801
:1041A0003442000884000020340700004A3F000821
:1041B00000000000000000000000000000000000FF
:1041C0000000807F000000000000000000000000F0
:1041D000000000000000000000000000000000419E
:1041E00000000041000000410000803F000000008E
:1041F00000000000000000000000000000000000BF
:1042000000000000000000000000000000000000AE
:10421000000000000000000000000000000000009E
:10422000000000000100000010000000000000007D
:0442300000127A00FE
:040000050800018965
:00000001FF
